:100000000C94AA0A0C94F10A0C94F10A0C94F10ACB
:100010000C94F10A0C94F10A0C94F10A0C94F10A74
:100020000C94F10A0C94F10A0C9404300C94D33023
:100030000C948C290C94F10A0C94F10A0C94F10A9A
:100040000C94F10A0C94F10A0C94F10A0C94F10A44
:100050000C94F10A0C94E5290C94F10A0C94F10A21
:100060000C94F10A0C94F10A0C94F10A0C94F10A24
:100070000C94F10A0C94F10A0C94F10A0C94F10A14
:100080000C94F10A0C94F10A0C94F10A0C94F10A04
:100090000C94F10A0C94F10A0C94F10A0C94F10AF4
:1000A0000C94F10A0C94F10A0C94F10A67186A187E
:1000B0007C188D189518A018F718F718F718E51878
:1000C000E818A318A618AA18B718C418C718CB1888
:1000D000D81811201120432043209020B721B721A8
:1000E000B721AE204721582158215322532265229F
:1000F00065225C22652265226522532253226122F9
:10010000652265226122403167315F3267315F329B
:10011000B331D6315F322D323C320A0062757273D0
:1001200074206F6E00256325632563256325632591
:1001300063256325637C0001048E966E773EFE7E08
:100140005F1DB8F2664EFF5D19B0C20469542AD62D
:100150002EBFDD19B0C3E529B1E023A5A9B1C100C7
:1001600082674C1A978D795120C7068E7C7C7A76EF
:100170004FFD5930E2460E9EBEDF1D9991A0A5A10C
:10018000A9D022C6EF5C1B958990A2A7CCFB55286D
:10019000B3E44AF76C3BF46A562EDE1F9DB8D305D4
:1001A0008892A6CE1EBEDF1D99B0E246EF5C071115
:1001B0005D980B9D9497EE4E45336B44C7295627A7
:1001C00030C6A7D5F256DFB43862CBA0B6E30F84B1
:1001D000062405656F7689B577412782666582CCEE
:1001E000D5E620D52717C5F803237C5F64A51DC17C
:1001F000D636CB4CD4DB66D78BB1997E6F4C36406C
:1002000006D6EBD7A2E4F495515A5496D55344D769
:100210008CE0B94068D218E9DD9A239248EE7F431A
:10022000AFEA7738848C0A72AF69F8DDF12483A3D2
:10023000F84ABFF59413DBBBD8B4B3A0FB455060BC
:100240003059123171A2D313E7FAE7CE0F63150BC1
:100250006B94BB378326059DFB4692FC0A15D10D96
:100260007392D68C1B8CB8558ACEBDFE8EFCED09E0
:1002700012839182513123FBB40C76AD7CD9B44BFF
:10028000B26714099C7F0C18BA3BD68E142AE41B63
:10029000529F2B7DE1FB6A3302FAAC5AF23E887E14
:1002A000AED1F378E805D1E3DC21F6E19ABD170E73
:1002B000D9469B8803EAF666BE0E1B5049964097C6
:1002C000F1F1E480A66EE87734BF294044C2FF4EC6
:1002D00098D39CA3322B76510409E7A9D1A632B159
:1002E0002353E247ABD6F5695C3E5FFAAE4520E5A5
:1002F000D244FF39326DFD27575CFDF0DEC1B59960
:10030000E5F51C770175C56D5892F2B247000126DC
:10031000967A30FFB7F0EF77C18A5DDCC0D1293023
:100320001E77387A94F1B87A7EEFA4D1AC314AF2D4
:100330005D643DB2E2F00899FC70EE24A77EEE1EEB
:1003400020697D44BF8742DF883B0CDA42C904F94B
:100350004550FC838F116A72BC9995F0AC3DA73B68
:10036000CD1CE2887937115F3989950A16847AF6AF
:100370008AA428E4ED83803BB123A50310F466EA48
:10038000BB0C0FC5EC6C69C5D324ABD42AB79988D4
:100390007608A0A8957CD8386DCD5902514BF1B59F
:1003A0002B50E3B6BDD072CF9EFD6EBB44C8248AED
:1003B00077188A1306EF977DFA81F031E6FA77ED28
:1003C0003106315B548A9F3068DBE240F84E73FAA5
:1003D000AB748B105813DCD2E678D1322E8A9F2C66
:1003E00058064827C5A95E8147894621910370A414
:1003F0003E889CDA330ACEBC8B8ECF9FD37180436C
:10040000CF6BA95183763082C56A853911501A8223
:10041000DC1E1CD57DA9719933471997B35AB1DFFA
:10042000EDA4F2E62684A2289A9EDFA66AF4D6FC02
:100430002E5B9D1A2A2768FBC183214B90E036DD95
:100440005B314255A013F7D089537199570929C5DB
:10045000F321F8372F40F3D4AF16083602FC77C5E6
:100460008B049056B9C9679A99E800D386FF972DF7
:1004700008E9B7B391BCDF45C6ED0F8C4C1EE65BB7
:100480006E3830E4AAE395DEB9E49AF5B2559A875E
:100490009BF66AB2F2779A31F47A31D11D04C07CAE
:1004A00032A29E9AF562F8278DBF51FFD3DF6437E1
:1004B0003F2A6F763A7D77069E777F5EEB3251F961
:1004C00016669A09F3B008A470964630FFDA4FE931
:1004D0001BED8DF8741F3192B3731736DB9130D654
:1004E00088556B3477877AE7EE06C61C8C190C4862
:1004F00046235E9C075CBFB47ED64F749CE2C55019
:100500008BC58B159060625729D01343A1808891C9
:100510000044C74D1986CC2F2A755AFCEB972A70D8
:10052000E378D891B04F9907A395EA2421D5DE51FD
:100530002093270A3073A8FF8A97E9A76A8E0DE8EF
:10054000F0DFECEAB46C1D392A622D3D5A8B65F858
:1005500090052E7E912C78EF8E7AC12FAC78EEAF7D
:100560002845064C26AF3BA2DBA39306B53CA5D895
:10057000EE8FAF25CC3F856848A962CC978F7F2A44
:10058000EAE0150AAD6207BD45F841D836CB4CDB31
:100590006EE63AE7DA15E9291E1210A0142C0E3D7A
:1005A000F4BF394192750B257BA3CE399C1564C8E5
:1005B000FA3DEF7327FE262ECEDA6EFD718EDDFE3C
:1005C00076EEDC125C02C53A4E4E4FBFCA4015C7EC
:1005D0006E8D41F110E04F7E977F1CAE478E6BB160
:1005E0002531B073C71B9779F980D3662230077421
:1005F0001EE4D08021D6EE6B6C4FBFF5B7D90987CA
:100600002FA914BE27D9725001D41373A6A7510283
:100610007525E1B345347DA88EEBF31649CB4F8C9D
:10062000A1B9368539755D0800AEEBF6EAD7133A05
:10063000215A5F3084522695C914F257556BB11078
:10064000C2E1BD3B51C0B7554C711226C70DF951DF
:10065000A43802057FB8F1724BBF718914F3773863
:10066000D97124F30011A1D8D46927083735C911ED
:100670009D901C0EE71CFF2D1EE892E11810957C42
:10068000E080F4964321F975216438DD9F1E9516AC
:10069000DA561D4F9A53B2E2E418CB6B1A65EB564B
:1006A000C63BE5FED8263F3A84597266A2F375FF31
:1006B000FB60B322AD3F2D6BF9EBEA057CD88F6D63
:1006C0002C989E2B93F15E46F08749297368D77F5B
:1006D000F9F0E57DDB1D7519F3C4589B1788A892C6
:1006E000E0BEBD8B1D8D9F5676ADAF29E2D9D552A8
:1006F000F6B55635573AC8E156431994D3049B6D65
:1007000035D80B5F4D198EECFA64910A72202BBC20
:100710001A4AFE8BFDBBED1B23EAAD7282A129991B
:1007200071BDF095C103DD7BC2B23C2854D368A4EF
:1007300072C86696E0D1D87FF8D1262BF7ADBA55AE
:10074000CA15B932C3E588978E5CFB92258BBFA290
:1007500045557AA76F8B575BCF0ECB1DFB20827759
:10076000A88CCC16CE1DFADECC0B62FECCE1B7F025
:10077000C381647340A0C24D8911753355338DE830
:100780004AFDEA6E300BD7312CDE47E3BFF8554205
:10079000E27F59E517EF99346991B1238E20872DB7
:1007A000A8FED58AF3843AF037E4090054EE67498D
:1007B00093E48170E3904DEFFE41B7997BC183BA1A
:1007C00062126F7DDE6BAFDA16F95551EEA60C2B77
:1007D00002A3FD8DFB3017E46FDF3671C4CA872595
:1007E00048B047ECEAB4BFA54D9B9F0293C4E3E435
:1007F000E8422D6881150AEB845BD6A874FB7D1D49
:10080000CB2CDA462A7662CEBC5C9E8BE7CFBE78D4
:10081000F57CEBB33A9CAA6FCC72D159F21123D676
:100820003F48D1B7CEB0BFCBEA80DE57D45E972F1A
:1008300075D1508E802C6679BF724BBD8A816CD386
:10084000E101DCD21526C536DA2C1AC02794EDB7A3
:100850009B850B5E8097C5EC4FEC885D5007354754
:10086000DC0B3B3DDD60AFA85D813824255D5C1568
:10087000D1DEB3ABEC0569EF83ED5754B864641176
:10088000163269DA9F2D7F36BB445A34E87FBF03A6
:10089000EB007F59682279CF736C2C29A7A15F38B0
:1008A000A11DF02053E01A6314587110AA080C3EE1
:1008B000161A6022827FBAA443A0D0AC1BD56B6409
:1008C000B51493319E5350D05766EE5A4FFB032A0E
:1008D000695876F183F74EBA8C4206605D6DCE6042
:1008E00088AEA4C3F103A54B98A1FF67E1ACA2B801
:1008F00062D76FA031B4D277AF211006C69AFF1D20
:1009000009170E5FF1AA54344B458A8763A6DCF9B8
:10091000243067C6B2D6613369EE50615728E77E4E
:10092000EEEC3A5A734EA88DE418EAEC4164C8E242
:10093000E866B62DB6FB6A6C16B3DD4643B97300A4
:100940006A71ED4E9D251AC33C4A9515993581145F
:1009500002D6989BECD8233B8429AF0C9983A69AA6
:10096000344FFAE8D03C4BD0FBB668B89E8FCDF739
:10097000602D7A22E57DAB651B95A7A87FB67747EA
:100980007B5F8B1272D0D491EFDE19503CA78BC4E1
:10099000A9B323CB76E681F0C1048FA3B8545B974B
:1009A000AC19FF3F55272FE01D429B57FC4B4E0FC4
:1009B000CE98A9435703BDE7C894DF6E367332B4AF
:1009C000EF2E857A6EFC6C188275359007F3E49FE4
:1009D0003EDC68F3B5F31980920699A2E86FFF2E0A
:1009E0007FAE42A45FFBD40E812BC304FF2BB374F4
:1009F0004E365B9C1500C6472BE88B3DF19C039A55
:100A0000587F9B9CBF854979352E567B41143947C9
:100A10008326AA078998111B86E7737AD87D7861A7
:100A200053E979F5368D449284F91350583BA46A02
:100A30003665498E3C0EF16FD284C47E8E3F39AE4E
:100A40007C84F163378E3CCC3E448145F14BB9ED5B
:100A50006B365DBB20601A0FA3AA55773AA9AE3753
:100A60004DBAB8866BBC0850F6CCA4BD1D4072A52B
:100A700086FAE210AE3D584B97F34374A99EEB21E2
:100A8000B701A4869397EE2F4F3B86A1416F412675
:100A900090785C7F30384B3FAAECED5C6F0EAD4335
:100AA00087FD9335E601EF412690999EFB195BADDA
:100AB000D2918AE046AF65FA4F84C1A12DCF458B14
:100AC000D38550557CF96788D44EE9D76B6154A122
:100AD000A4A6A2C2BF309C409F5FD7692B24825E30
:100AE000D9D6A712541AF7559F7650A99584E66B6C
:100AF0006DB59654D6CDB3A19B46A7944DC494B47E
:100B000098E3E1E234D533160754CDB77753DB4F82
:100B10004D469DE9D49C8A36B6B838266C0EFF9CAB
:100B20001B438B80CCB93DDAC7F18AF26DB8D7741C
:100B30002F7E1EB7D34AB4ACFC79486CBC96B694F1
:100B400046572DB0A3FC1EB95260852D41D04301FC
:100B50001E1CD57DFCF3960DC7CB2A299A93DD8800
:100B60002D375DAAFB4968A09C50867F685657F9CF
:100B7000791839D4E001843361CAA5D2D6E4C98A90
:100B80004A23444EBCF0DC24A1A0C4E2073C10C4BC
:100B9000B5254B6563F480E7CF61B1718221872C65
:100BA000F59100320CECA9B59A7485E3368F764F37
:100BB0009C6DCEBCAD0A4BED7604CBC3B9339E0120
:100BC0009396697DC5A245799B045C8409ED8843B1
:100BD000C7AB931426A140B5CE4EBF2A42853E2C0A
:100BE0003B54E8121F0E9759B22789FAF2DF8E683C
:100BF00059DC06BCB6850D0622ECB1CBE504E63D1A
:100C0000B3B04173083F3C588663EB50EE1D2C3760
:100C100074A9D318A3476E9354AD0A5DB82A555DE5
:100C200078F6EEBE8E3C7669B940C234EC2AB9ED56
:100C30007E20E48D0038C7E68F44A886CEEB2AE9F3
:100C400090F14CDF32FB731B6D921E95FEB4DB6599
:100C5000DF4D23548948BF4A2E70D6D762B433295A
:100C6000B13A334C236DA676A5216348E6905DED3D
:100C700090950B7A84BEB80D5E630C62264C145AB4
:100C8000B3AC23A474A76F333005600142A028B72A
:100C9000EE1938F164808243E141271F1F90547A96
:100CA000D5232ED13DCB28BA587FDC7C9124E9286E
:100CB00051836EC5562142EDA05622A140806BA8FB
:100CC000F794CA136B0C39D9FDE9F36FA69EFC703B
:100CD0008AB3BC593C1E1D6CF97CAFF9887195EB49
:100CE0005700BD9F8C4FE12483C522EAFDD30CE25F
:100CF00017187C6A4CDE77B4539B4C81CD2360AAD5
:100D00000E25739C02793230DF74DF7519F4A51457
:100D10005CF77AA8A591847C6003063BCD50B6278A
:100D20009CFEB1DDCCD3B05924B2CAE21C81229D15
:100D3000078F8EB9BE4EFAFC3965BABF9D12375E79
:100D4000977EF389F55DF5E3098C62B5209D0C5320
:100D50008A681BD28F75175DD4E5DA756219146A3B
:100D6000262DEBF8AF37F06CA455B1BCE233C09A36
:100D7000CAB011494F689B3B6B3CCC13F6C78561E9
:100D80006842AEBBDDCD4516291DEADBC803943CA5
:100D9000EE4F8211C3EC28BD970599DED7BB5E22CA
:100DA0001FD4EB64D992D985B76A056AE42441F16E
:100DB000CDF0D83FF89E0ECD0B7A706B5A750A6A4B
:100DC0003388EC17750870102F24CFC4E9420061F6
:100DD00094CA1F3A7606FAD24881F077600345D963
:100DE00061F4A46F3DD930C3046B542AB7EC3BF4D3
:100DF0004BF5685226CEFF5D1991A0A3A5A9B1E0DD
:100E000023C40A774DF95120A3A5A9B1C100828658
:100E10008E7F5D1991A0A3C4EB540B756852078CAB
:100E20009A978D79706246EF5C1B95897141E1213B
:100E3000A1A1A1C002674C1AB6CFFD785324ABB56F
:100E4000C9F16023A5C812876D5813858892876DF4
:100E50005832C70C9A97ACDA36EE5E3EDF1DB8F218
:100E6000662FBDF87247ED5813858892878C7B55A5
:100E70000990A2C6EF3DF85324ABD42AB7EC5A36FA
:100E8000EE5E3EDF3CFA764FFD5930E246EF3DF82C
:100E900053056931C10082868E7F5D19B0E227CC8F
:100EA000FB744B148B948B756833C50892878C9AAE
:100EB000B6CF1CBAD70D98B2E62FDC1B95897160AE
:100EC00023C40A968F9CBAF66E3FFC5B15A8D22607
:100ED000AFBDF872662FDC1BB4CB148B94AAB7CDD0
:100EE000F951018082866F3DD930E227CCFB744BEB
:100EF00014AAB7CDF97043046B35C9F16023A5C8B6
:100F0000F3450892876D5832E62FBDF872664E1E83
:100F1000BEFE7E7E7E5F1D9991A0A3C40A774D1808
:100F200093A4ABD40B754910A2C6EF3DF85324AB84
:100F3000B5E833E44A16AEDE1FBCDB15A8B3C5081E
:100F40007345E931C1E121A1A1A1C002866F5C3ADC
:100F5000D70D9893A4CA16AEDE1F9D99B0E246EF56
:100F60003DF872470C9AB6CFFD5911A0A3A5C8F35E
:100F7000450892876D39F043048A96AEDE3EDF1D48
:100F80009991A0C2066F3DF872470C9A978D98937D
:100F900085887345E931E023A5A9D003848A96AEFC
:100FA000DE1FBCDB15A8D226CEFF5D1991818082A1
:100FB000672DD813A4ABD40B94AAB7CDF95120A3B5
:100FC000A5C8F345E95022C6EF5C3AD70D98938542
:100FD0008873644AF74DF95120A3C40A96AEDE3EE9
:100FE000FE7E7E7E5F3CFA764FFD7872662FBDD91D
:100FF00030C3E54812878C7B5528D2078C9A97AC72
:10100000DA178D795120A3C4EB540B948B94AAD694
:101010002EBFFC5B15A8D226AFDC1BB4EA37EC3B35
:10102000F46A37CD1893856931C1E140E325C812D0
:10103000878C9AB6CFFD5911A0C2068E7F5D38F21B
:10104000470C7B746A37EC5A36EE3FFC7A764F1CBD
:101050009B95897141006344EB542AD60F9CBAD703
:101060000D9893856931C10082868E9EBEDF3CFA61
:10107000572CDA36EE3FFC5B158971410082868E73
:101080007F5D38F247ED5813A4CAF74DF95101803E
:101090006344EB542AD62EBFDD1991A0A3A5A9B1B4
:1010A000E042068E7F5D1991A0A3C40A968F7D78D9
:1010B00072470C7B746A562EDE1FBCFA570D7951AD
:1010C000016121A1C0E325A9B1C1E14002674C1A29
:1010D000978D9893A4ABD42AD60F9C9BB4CB14AA1B
:1010E000B7CDF95120A3C4EB35C9F16042068E7F1C
:1010F0007C7A766E3FFC7A766E5E3EFE7E5F3CDBEF
:1011000015897141E121C0E344EB542AB7CDF97050
:101110006227ADD832C70C7B744B14AAB7EC3BD511
:1011200028D2076D39D120C2E74C1A978D98B2C7E3
:101130000C5928F39B4B4C3A206B633A2025752CB5
:1011400020636F6C3A2025752C20726F773A20252A
:10115000752C20707265737365643A2025750A00DA
:10116000436F6E735D20583A2025642C20593A2035
:1011700025640A00507265205D20583A2025642CB1
:1011800020593A2025640A0044656C745D20643A55
:1011900020256420743A2025750A00537461727406
:1011A000696E67206D6F74696F6E2E0A004F505420
:1011B000313A2025642C204F5054323A2025640ABD
:1011C00000F400F600F500F700F800190106011D13
:1011D0000101000100010001000100010001000106
:1011E00000010001000100010001000100010001F7
:1011F00000010001000100010001000100010001E7
:1012000000010001000100010001000100010001D6
:1012100000010001000100010001000100010001C6
:1012200000010001000100010001000100010001B6
:1012300000010001000100010001000100010001A6
:101240000044454255473A2064697361626C6564A5
:101250002E0A0044454255473A20656E61626C652E
:10126000642E0A0000000000000000002A2B280065
:101270000000000000000000000000000000002945
:10128000000000002C1E3420212224342627252E85
:10129000362D3738271E1F202122232425263333BD
:1012A000362E37381F0405060708090A0B0C0D0EE9
:1012B0000F101112131415161718191A1B1C1D2FB5
:1012C0003130232D350405060708090A0B0C0D0ED5
:1012D0000F101112131415161718191A1B1C1D2F95
:1012E0003130354C0000000000000000000000001C
:1012F00000000000000000007E0F00D4FFFFFFC7C9
:10130000000000780A0025303862003A20002530BD
:101310003258000A722F6320303132333435363779
:101320000A000A002530325820006B6579626F612F
:1013300072645F7265706F72743A20000A00253023
:101340003258006B6579626F6172645F7365745FB8
:101350006C65643A20005B735D004B6579626F6178
:1013600072642073746172742E0A005B575D005BB7
:10137000535D005B525D005B445D005B435D0004B8
:1013800003300000000C034D006F00750073006512
:10139000000000120350006C006F006F00700079B5
:1013A0000043006F000000040309040902940005D3
:1013B0000100A0320904000001030101000921110C
:1013C0000100012240000705810308000109040112
:1013D0000002030000000921110100012222000780
:1013E000058303200001070504032000010904020E
:1013F000000103010200092111010001224D000733
:10140000058203080001090403000103000000092C
:101410002111010001223200070585032000010986
:10142000040400020300000009211101000122222E
:1014300000070586032000010705060320000112AE
:101440000110010000000843506F4D01000102032C
:10145000010631FF0974A1010975150026FF0095E9
:1014600020750881020976150026FF009520750871
:101470009102C00660FF0961A1010962150026FF03
:10148000009520750881020963150026FF0095204C
:1014900075089102C005010980A101850319012A7F
:1014A000B700150126B700950175108100C0050C25
:1014B0000901A101850419012AA002150126A00233
:1014C000950175108100C005010902A1010901A162
:1014D00000050919012905150025019505750181EA
:1014E0000295017503810105010930093115812536
:1014F0007F95027508810609381581257F9501754C
:10150000088106050C0A38021581257F95017508AA
:101510008106C0C005010906A101050719E029E7F8
:101520001500250195087501810295017508810155
:101530000507190029FF150026FF0095067508818B
:101540000005081901290595057501910295017598
:10155000039101C011241FBECFEFDAE0DEBFCDBF83
:1015600004B603FE27C08091510390915203A091CD
:101570005303B09154038730904BA740B04BD1F444
:10158000109251031092520310925303109254037D
:1015900014BE84B7877F84BF0FB6F894A895809156
:1015A0006000886180936000109260000FBEE0E0F0
:1015B000F8E3099511E0A0E0B1E0EAE3F6E602C045
:1015C00005900D92AE39B107D9F723E0AEE9B1E04D
:1015D00001C01D92A135B207E1F70E94C02C0C9406
:1015E0001B330C940000FF93EF93E0919E01F09168
:1015F0009F01309709F00995EF91FF910895FC0143
:101600008591803011F0EFDFFBCF0895FF27E0E2F6
:1016100030E247FF0CC0419597FF09C0EDE26095AD
:10162000709580959095611D711D811D911D27FFFD
:1016300002C0219530E350E2AA27660F771F881F6A
:10164000991FAA1FA41710F0A41B63955A95A9F718
:10165000AA3008F0A95FA05DAF93F39561157105FD
:101660008105910541F7ED3211F4EF93F395F217EF
:1016700018F43F93F395FBCF8F91B5DFFA95E1F71F
:101680000895E991F9918591803021F0853219F022
:10169000AADFF9CF089520E0E89455915532C1F3BF
:1016A000503311F4689455915A3348F4505390F3E1
:1016B000220F022E220F220F200D250FF4CF0EF441
:1016C000219589919991533619F3533729F153355F
:1016D00059F1BC0188279927E8945C3621F4899157
:1016E000999168945591543639F446EF7EF077FF1E
:1016F0000DC08FEF9FEF0AC055374AE039F05835DB
:1017000040E121F0523642E009F00895FF93EF9353
:101710007DDFEF91FF91B7CFFF93EF93FC018191B4
:101720008030B9F360DFFBCFFF93EF9368DFF1CF39
:10173000DF93CF93CDB7DEB72596A3DFCF91DF91AF
:1017400008959091120290FF45C080FD02C070E3A1
:1017500001C071E381FD02C060E301C061E382FD6D
:1017600002C050E301C051E383FD02C040E301C069
:1017700041E384FD02C030E301C031E385FD02C0D6
:1017800020E301C021E386FD02C090E301C091E3A4
:10179000881F8827881F805D1F927F931F926F93F9
:1017A0001F925F931F924F931F923F931F922F930D
:1017B0001F929F931F928F9385E291E09F938F9347
:1017C0000E94980B8DB79EB742960FB6F8949EBFB5
:1017D0000FBE8DBF089522E030E043E060E080E37B
:1017E0000E94E51C92E09A95F1F700C0089582E00E
:1017F0008A95F1F700C00C948E1DCF93DF93C82F0C
:10180000D62F803511F01092A0010E94EB0B8C2F87
:1018100080680E945E1D8D2F0E945E1DEC0185E395
:101820008A95F1F7000087EC90E00197F1F700C08E
:1018300000000E948E1DCE01DF91CF910895CF93BD
:10184000C82F0E94EB0B8C2F8F770E945E1D0E9489
:10185000761DC82F82E08A95F1F700C082E38A9551
:10186000F1F700C00E948E1D8C2FCF910895CF9369
:10187000DF93EC010E94EB0BCE0164E670E00E9466
:101880009E32615071096837710510F067E770E0AA
:101890008FE00E94FD0BDF91CF910C948E1DCF93B2
:1018A000DF9360E080E10E94FD0B60E081E10E9437
:1018B000FD0B6DE183E10E94FD0B8FE19EE401973A
:1018C000F1F700C0000068E183E10E94FD0B0E9477
:1018D000EB0B82EE0E945E1D98E29A95F1F7C7E34A
:1018E000D1E081E1C533D80749F0FE0184910E941F
:1018F0005E1DF8E2FA95F1F72196F3CFEFE8F1E0FB
:101900003197F1F700C000008AE20E941F0C60E0EE
:1019100080E10E94FD0B0E948E1D8FE19EE40197E5
:10192000F1F700C00000DF91CF910895CF93DF93CE
:1019300080E00E941F0CD82F8FE30E941F0CC82F3D
:101940008AE20E941F0CD23441F4CD3B31F491E085
:10195000843009F090E0892F01C080E08170DF9130
:10196000CF9108950E94DD1C1092A0010E948E1D4F
:101970000E94EB0B0E948E1D66EB8BE30E94FD0B19
:101980002FEF82E597E0215080409040E1F700C0C2
:1019900000000E94EB0B2AE62A95F1F700C00E9496
:1019A000F70B8AE68A95F1F700C06AE58AE30E94A0
:1019B000FD0B9FE728E381E0915020408040E1F754
:1019C00000C0000082E00E941F0C83E00E941F0CF8
:1019D00084E00E941F0C85E00E941F0C86E00E949C
:1019E0001F0C0E944F0C0E94F70B8FE19EE40197A1
:1019F000F1F700C0000080E496E00E94370C8FEC05
:101A000097E00197F1F700C000000C94960C9F92AC
:101A1000AF92BF92CF92DF92EF92FF920F931F93FC
:101A2000CF93DF93EC018091A001811113C08091CD
:101A3000120280FF08C08CE191E09F938F930E9477
:101A4000980B0F900F9060E080E50E94FD0B81E005
:101A50008093A0010E94EB0B80E50E945E1D8DE546
:101A60008A95F1F700000E94761DF82E80E00E9412
:101A70005E1D0E94761D6C010E94761DB82E0E948C
:101A8000761D8C010E94761DE82E0E948E1D8F2DE2
:101A90000E94A10B8C2D0E94A10B8B2D0E94A10BEB
:101AA000802F0E94A10B8E2D0E94A10B809112020B
:101AB00080FF08C08AE191E09F938F930E94980B6A
:101AC0000F900F909F2C991C9924991CAA24A394E1
:101AD000F3FCA12C8B2D0B2C000C990B982F882735
:101AE000C82AD92AD194C194D1088E2D0E2C000C6D
:101AF000990B982F8827082B192B119501951109FF
:101B00000E948E1D8F2D877011F01092A001F88217
:101B10009982AA82DC82CB82BD821F830E83E886F3
:101B2000CE01DF91CF911F910F91FF90EF90DF9049
:101B3000CF90BF90AF909F9008951092E9021092BD
:101B400061021092A5028FEF93E09093A702809319
:101B5000A6021092EC021092EB021092A8021092D0
:101B60003003109237031092360310923403109210
:101B70003303109262021092A40290933203809376
:101B8000310310922202109221021092ED02109263
:101B900063021092F1021092F0021092AA021092C7
:101BA000A9021092EA02109235031092EF021092ED
:101BB000EE0210926502109264020895FC012081E9
:101BC00031812E3131052CF42F5F3F4F318320833B
:101BD00008951182108281E0FB01808308952F9285
:101BE0003F924F925F926F927F928F929F92AF92AD
:101BF000BF92CF92DF92EF92FF920F931F93CF93FA
:101C0000DF9300D0CDB7DEB7FC013B012A013A8358
:101C10002983DB018D919C911197E817F90714F442
:101C2000ED93FC93D2018D919C9111978E179F0794
:101C300014F4ED93FC93D2012D903C90D3012D919F
:101C40003C91C101821B930B8A3091050CF451C069
:101C500063E070E00E94B232620F731FE617F7076D
:101C6000ACF4F8018081882369F0D401ED91FC91F6
:101C7000EE0FFF1FEC0DFD1D31822082698D7A8DE4
:101C8000C40118C081E0E981FA8132C06E177F0774
:101C900084F5A981BA818C91882341F1D501ED9118
:101CA000FC91EE0FFF1FEE0DFF1D318320836F8926
:101CB000788DC5010E94DE0DF30120813181D201B2
:101CC0008D919C91821B930B97FD0196959587951D
:101CD000820F931FF30191838083D2018D939C9394
:101CE000E981FA811082D8011C9203C081E0F801D9
:101CF0008083A98DBA8D8C91882381F0F60196019D
:101D0000225C3F4F80E090E041915191840F951FFC
:101D10002E173F07C9F76FE170E015C0F40160812D
:101D200071816115710599F0F60120E030E080E0E5
:101D300090E0261737073CF441915191840F951F8D
:101D40002F5F3F4FF6CF0E94B2329B0103C0D201FA
:101D50002D913C91EF89F88D8081882381F0F701E6
:101D6000A701425C5F4F80E090E061917191860F26
:101D7000971F4E175F07C9F76FE170E015C0D501D7
:101D80006D917C916115710599F0F70140E050E08B
:101D900080E090E0461757073CF4A191B1918A0F7B
:101DA0009B1F4F5F5F4FF6CF0E94B232FB0103C013
:101DB000D301ED91FC91C9018E1B9F0B63E070E094
:101DC0000E94B232CB018E0F9F1F0F900F90DF91B8
:101DD000CF911F910F91FF90EF90DF90CF90BF9028
:101DE000AF909F908F907F906F905F904F903F90BB
:101DF0002F9008958F929F92AF92BF92CF92DF92D1
:101E0000EF92FF920F931F9324EA32E03F932F93B8
:101E100022E632E03F932F9323E3822E23E0922E9B
:101E200036E3A32E33E0B32E4BEAC42E42E0D42E89
:101E300052EFE52E52E0F52E00E313E028EA32E0FF
:101E40004BEE52E066EA72E00E94EF0D9093EF02D3
:101E50008093EE020F900F900F900F901F910F91B3
:101E6000FF90EF90DF90CF90BF90AF909F908F90BA
:101E700008958F929F92AF92BF92CF92DF92EF928E
:101E8000FF920F931F9325E333E03F932F932AEEA6
:101E900032E03F932F9329EA822E22E0922E30EFF8
:101EA000A32E32E0B32E46E6C42E42E0D42E53E2F7
:101EB000E52E52E0F52E03E612E02DEE32E041E28F
:101EC00052E061E373E00E94EF0D9093650280930E
:101ED00064020F900F900F900F901F910F91FF9041
:101EE000EF90DF90CF90BF90AF909F908F9008952C
:101EF0000F931F93CF93DF938C01EB0180916202CC
:101F0000882321F08091A402811103C0C8010E949E
:101F1000FA0E8091EA02882321F080913503811125
:101F200003C0CE010E94390F4091EE025091EF02A2
:101F300080916402909165022091E902211121C0F3
:101F4000041715077CF4C817D9070CF469C083E09F
:101F50008093E9028091A502882309F461C0109260
:101F6000A50238C0C817D9070CF05AC081E0809389
:101F7000E90280916102882309F452C01092610243
:101F800038C02130B1F4041715073CF0C817D90741
:101F90000CF446C01092E90207C0C817D9070CF02C
:101FA0003FC082E08093E9022093A5021092610273
:101FB00037C0223009F5041715077CF0C817D90778
:101FC0007CF581E08093E90280916102882341F1F0
:101FD0001092610281E090E025C0C817D90704F192
:101FE00083E08093E9028091A5028823C9F01092D2
:101FF000A5028FEF9FEF16C00417150734F0C8171E
:10200000D90774F01092E90206C0C817D90744F442
:1020100082E08093E90281E0809361021092A50240
:1020200080E090E0DF91CF911F910F910895FC0126
:10203000648343830895EF92FF920F931F93CF938E
:10204000DF93EC018091A2019091A3010E94D62917
:102050008436910508F44CC08091A4019091A501AB
:102060000E94D629059708F443C08091A8018111E8
:102070003FC00E94BE299093A5018093A40180E0F7
:102080000E94BA1C8C0184E00E94BA1C7C018091E1
:10209000A1018823A1F08091120280FF10C0FF925D
:1020A000EF921F930F938DEA91E19F938F930E947C
:1020B000980B0F900F900F900F900F900F90B7010B
:1020C000C8010E94780F882399F04B81042E000CE0
:1020D000550B480F511D6C81062E000C770BCE015D
:1020E000DF91CF911F910F91FF90EF900C941710FB
:1020F000DF91CF911F910F91FF90EF900895FC0118
:10210000618342830895AF92BF92CF92DF92EF92A4
:10211000FF920F931F93CF93DF93CDB7DEB729972D
:102120000FB6F894DEBF0FBECDBF6C01CE01019695
:102130000E94070D8B81882309F4A8C08A81882317
:1021400009F4A4C0EC80FD80AF80B8848091A60122
:102150009091A701892BA1F48091120283FF0AC0FC
:1021600080FF08C08BE991E19F938F930E94980BA9
:102170000F900F900E94BE299093A7018093A60113
:102180008091120283FF24C080FF22C08091A701AA
:102190008F938091A6018F939701F7FE03C031952D
:1021A00021953109C501B7FE03C09195819591092B
:1021B000820F931F9F938F9388E891E19F938F9352
:1021C0000E94980B0F900F900F900F900F900F9010
:1021D0008091120283FF12C080FF10C0BF92AF92A5
:1021E000FF92EF9284E791E19F938F930E94980B67
:1021F0000F900F900F900F900F900F908701003865
:10220000110514F00FE710E001388FEF180714F4F0
:1022100001E81FEF750180E8A816B1041CF09FE7E4
:10222000E92EF12C81E8E8168FEFF80624F481E816
:10223000E82EFF24FA948091120283FF12C080FFDF
:1022400010C0FF92EF921F930F9380E691E19F934E
:102250008F930E94980B0F900F900F900F900F90FC
:102260000F90A701B801C60129960FB6F894DEBFFA
:102270000FBECDBFDF91CF911F910F91FF90EF90D7
:10228000DF90CF90BF90AF900C947F1029960FB63F
:10229000F894DEBF0FBECDBFDF91CF911F910F919C
:1022A000FF90EF90DF90CF90BF90AF900895DF92B6
:1022B000EF92FF920F931F93CF93DF9300D000D044
:1022C0001F92CDB7DEB78C017B018091120283FF94
:1022D00019C080FF17C0FB0182811F928F938181FB
:1022E0001F928F9380811F928F931F930F9385E38B
:1022F00091E19F938F930E94980B0FB6F894DEBFE5
:102300000FBECDBFF7018081813069F481818111D9
:102310000AC00E94BE299093A3018093A201F701F5
:1023200082818093A801B701C8010E94DF12D82ED4
:10233000882309F448C00832FDE51F0719F5F701A5
:1023400082818823F9F08091380390E0019663E060
:1023500070E00E949E328093380360913803709140
:10236000390380913A0390913B030E948928E091C0
:102370003803F0E0EE0FFF1FE050FF4F80819181A6
:102380000E94370C045F110905301105E0F40E942A
:102390007F173A834B835C836D83F701828141E031
:1023A00050E001C0440F0A95EAF7882311F0422B50
:1023B00002C0409542235A816B817C818D810E94AD
:1023C0009F170E9474178D2D0F900F900F900F90F4
:1023D0000F90DF91CF911F910F91FF90EF90DF90C1
:1023E00008950F931F93CF93DF9300D000D000D0B8
:1023F000CDB7DEB78098889884988C9886E0E5E120
:10240000F1E0DE01119601900D928A95E1F7FE014F
:1024100031969E01295F3F4F41E050E08191A82F06
:10242000A295AF70B0E091966C9191978F708A01F0
:1024300002C0000F111F8A95E2F7C801962F982B52
:1024400091969C93919792969C91929780958923CF
:1024500092968C932E173F0709F726960FB6F8949D
:10246000DEBF0FBECDBFDF91CF911F910F910C94B6
:102470004F1E0E94B20C0C949D0DEF92FF920F9391
:102480001F93CF93DF93CDB7DEB72A970FB6F8949B
:10249000DEBF0FBECDBF8D83411116C0E11014C049
:1024A000511112C0F11010C061110EC001110CC009
:1024B0008D81811109C0211107C0711105C081E012
:1024C000111103C080E001C081E081702A960FB62F
:1024D000F894DEBF0FBECDBFDF91CF911F910F915A
:1024E000FF90EF900895EF92FF920F931F93CF9379
:1024F000DF93CDB7DEB72A970FB6F894DEBF0FBED5
:10250000CDBF0E947F172E833F83488759876A87F4
:10251000CE0106960E941B10CE0106960E948310E3
:102520004E815F81688579858A850E949F170E9408
:102530007F1779018A01262F4E815F816885798511
:102540008A850E943D1281110E9474172A960FB647
:10255000F894DEBF0FBECDBFDF91CF911F910F91D9
:10256000FF90EF90089581E08093380360913803E5
:102570007091390380913A0390913B030C94892820
:102580000E948528609338037093390380933A033F
:1025900090933B03643010F00E94B3120C94CF165A
:1025A000E0913803F0E0EE0FFF1FE050FF4F808115
:1025B00091810E94370C0C944E1E81E0089581E0B9
:1025C000089508950C94E1121F93CF93DF9300D0E8
:1025D00000D01F92CDB7DEB749835A836B83309109
:1025E000BF0189819A81311114C0662359F02223D9
:1025F00049F00E941227182F682F89819A810E9422
:10260000BB2603C00E94E626182F69817A81812F9C
:1026100004C00E94122769817A810F900F900F9059
:102620000F900F90DF91CF911F910C94B219FC0184
:10263000262F408151816281738184810C94E41240
:10264000CF93DF93EC0160E00E941713BE01DF918E
:10265000CF910C94E212FF920F931F93CF93DF93CD
:10266000E82FF0E0EC59FD4EF490C82FC695C695C2
:10267000C695D0E0FE01EC50FD4E0491877010E04D
:10268000082E02C0159507950A94E2F701701127EC
:10269000FE01EC51FD4EC491D0E002C0D595C79526
:1026A0008A95E2F7C170DD270115110519F081EE59
:1026B0000E943C1F209719F086EE0E943C1F8F2D30
:1026C0000E94B61FCD2B19F086EE0E948A1F012BA7
:1026D00041F081EEDF91CF911F910F91FF900C940B
:1026E0008A1FDF91CF911F910F91FF900895EF9274
:1026F000FF920F931F93CF93DF93EC01162F0AE005
:102700008881882309F455C0813009F043C089814C
:10271000813041F47E0182E0E80EF11C8A810E9442
:10272000B61F09C0823049F47E01E2E0EE0EF11CD2
:102730008A810E943C1FE7012FC0833041F47E0153
:10274000F2E0EF0EF11C8A810E948A1FF4CF8430E0
:1027500011F0219621C02A81229680E090E030E09D
:10276000205331092A30310558F4089FA001099FF0
:10277000500D1124C901840F951F21962881EFCF98
:10278000009751F0EFECF7E03197F1F700C000004F
:102790000197F6CF0E942B132196812F882309F4ED
:1027A000AFCFEFECF7E03197F1F700C000008150B8
:1027B000F5CFDF91CF911F910F91FF90EF9008958A
:1027C00060E00C9477138F929F92AF92BF92CF925A
:1027D000DF92EF92FF920F931F936B017C0181E0D8
:1027E00090E0A0E0B0E04C015D0104C0880C991CB1
:1027F000AA1CBB1C4A95D2F7AC01BD0104C0440F12
:10280000551F661F771F2A95D2F7482959296A292B
:102810007B2904C0880F991FAA1FBB1F0A95D2F7F6
:102820008A019B010C211D212E213F2140175107B8
:102830006207730739F4BC01CD016C297D298E290B
:102840009F290AC080959095A095B095BC01CD01B7
:102850006C217D218E219F211F910F91FF90EF9080
:10286000DF90CF90BF90AF909F908F9008950F937F
:10287000382F262F6091FD017091FE018091FF019C
:1028800090910002042F432F0E94E3130F910C94A8
:10289000F7250E94312A0E945428811102C00E940B
:1028A000E6280C94C0120C94CD1608950E94412283
:1028B0000E9455142FE78AE196E021508040904015
:1028C000E1F700C000000C940B2A0F931F93CF93E5
:1028D000DF93EC0161E00E9417138C01BE010E949E
:1028E0001918882309F449C0BE01C8010E94571174
:1028F000882309F442C0BE01C8010E940C1B882332
:10290000E1F1BE01C8010E945E1B8823B1F1BE0146
:10291000C8010E94891C882381F18A81882331F1B2
:1029200001308CE5180751F00E3D8CE51807D9F001
:1029300001151C45D9F40E9456141FC08091120243
:10294000C82FC095C170C0FB80F980931202CC23C0
:1029500029F083E592E10E94FF0A0FC081E492E131
:102960000E94FF0A0BC00E94E62807C0CE01DF913B
:10297000CF911F910F910C94DD12C0E08C2FDF914D
:10298000CF911F910F91089508950C94C41481E084
:1029900008950C94C714CF93C82F0E94C5148C2F90
:1029A0000E94C914CF910895CF93DF930E94B2196A
:1029B0000E94C515EC0181159245F0F5C11581E520
:1029C000D80708F0A9C0C83ED10528F5C03ED105FA
:1029D00008F0D7C0C83AD10578F4C53AD10508F057
:1029E00074C0C130D10509F4CCC008F4C8C0C430EB
:1029F000D10508F0C6C0C3C0CF3BD10508F0BFC0A9
:102A0000C85AD0E0CC0FDD1FC55EDE4F0990D881DB
:102A1000C02DD464B6C0C11590E5D90708F060C0D8
:102A2000C11520E4D20708F058C0CE019A9581154F
:102A30009F4108F4A6C0A3C0C11586E5D80718F5C4
:102A4000C11595E5D90708F080C0C11524E5D20766
:102A500008F076C09E01237033278C2F86958695CB
:102A6000C115D34508F05DC0C1E0D0E002C0CC0F75
:102A7000DD1F2A95E2F720E2829FC0011124C82BB6
:102A8000D92BDC687EC0C1152AE5D20778F4C115C0
:102A900089E5D80708F063C0C11598E5D90708F49F
:102AA0006EC0DC2FCC27C06FD06A6BC0CE019056B1
:102AB0008115904208F063C08D2F8F710E945916C6
:102AC000DD27D0628F71D82B5CC0C55AD0E0C75BC0
:102AD000DE4FC881D0E0D06454C0DF70D06A51C0EE
:102AE000CE0174E0969587957A95E1F783709C2FD7
:102AF000937021E030E002C0220F331F9A95E2F775
:102B00003C68382BCF70C695C69580E2C89FE0011F
:102B10001124C22BD32B35C0DC2FCC27C16FD06A38
:102B200030C0C1E0D0E002C0CC0FDD1F2A95E2F733
:102B300020E2829FC0011124C82BD92BDA6821C062
:102B4000DC2FCC27C46FD06A1CC08C2F0E94591672
:102B50008F71C82FD0E0DC2FCC27D06212C08C2F11
:102B60008F700E94591694E0D695C7959A95E1F713
:102B7000CF70D0E0DC2FCC27D069C82B02C0C0E0DA
:102B8000D0E0CE01DF91CF9108958238910569F1AF
:102B9000B0F48133910509F46DC048F48932910590
:102BA00009F463C08A32910509F469C00895853338
:102BB000910509F455C089339105B9F00895833E14
:102BC000910569F138F4803E9105B1F0823E91059E
:102BD00009F10895863E9105A9F1873E9105B9F165
:102BE000843E910509F064C023C02091420320FD7A
:102BF0004FC021FD4DC008958091420380FD44C027
:102C00008091430380FF44C08091420384FD42C011
:102C100083EE4DC08091420382FF38C0F5CF809192
:102C2000420382FD33C08091430380FD31C0ECCF6D
:102C30008091430381FF32C08091420384FD2AC00A
:102C400087EE35C08091420383FF26C0F5CF809187
:102C5000420383FD21C08091430381FD1FC0ECCF5F
:102C60008091420385FD1CC01DC08091420385FDFB
:102C700019C016C08091420386FD16C017C080910E
:102C8000420386FD13C010C089E311C082EE0FC05D
:102C900080EE0DC080E00BC086EE09C084EE07C058
:102CA00089E205C085E303C08AE201C081E390E0C8
:102CB00008959091420392FF0DC0282F287128306B
:102CC00019F4877F846006C0282F2471243011F402
:102CD0008B7F886093FF0DC0282F2871283119F44D
:102CE000877E846106C0282F2471243111F48B7EE5
:102CF00088612091430320FF0DC0382F3871383090
:102D000019F4877F816006C0382F3171313011F49A
:102D10008E7F886021FF0DC0282F2871283119F47B
:102D2000877E816106C0282F2171213111F48E7EAA
:102D3000886194FD877E0895E82FF0E0E35CFC4F06
:102D40008081089583E193E10E94FF0A1F921F9200
:102D50008EE093E19F938F930E94980B8BE093E119
:102D60000E94FF0A80913D030E943C281F928F938E
:102D700086E093E19F938F930E94980B8DB79EB747
:102D800008960FB6F8949EBF0FBE8DBF84E093E106
:102D90000C94FF0A08950C94CA160C94CB160C944C
:102DA000CA16CF93DF93ACE4B1E064E571E041E093
:102DB00050E08D918F3F71F46A177B07D1F7109225
:102DC0003C0310923D0381E00E943D17DF91CF91BB
:102DD0000C944914E82FE295EF70F0E021A18F7078
:102DE000EA0102C0CC0FDD1F8A95E2F7CE019C2FCD
:102DF0009095922391A392A1892B82A3DDCFCF93AB
:102E0000ACE4B1E040E050E030E061E070E02D91F2
:102E10002F3FC1F0E22FE295EF70F0E080A190E04B
:102E20002F7002C0959587952A95E2F780FD07C01F
:102E3000CB01042E01C0880F0A94EAF702C080E09B
:102E400090E0382B4F5F5F4F4830510501F780917C
:102E50003C03831721F030933C03C1E001C0C0E084
:102E60002C2F41E06DE373E08CE393E00E943E176A
:102E70000E9453148C2FCF9108950895FF920F93C1
:102E80001F93CF93DF938C01F62ED72FC42F2223CD
:102E900049F081E08093AB010E94BE299093AA0182
:102EA0008093A9018091AB018823C1F08091A90191
:102EB0009091AA010E94D629069780F0EF2DFD2F50
:102EC000D8014C2F50E0CD01801B910B8417950742
:102ED0001CF48D918193F7CF1092AB01DF91CF91CC
:102EE0001F910F91FF9008958CEA91E00E94101EAF
:102EF000ECEAF1E011821282138214820895CF93DA
:102F0000DF9300D000D01F92CDB7DEB785E0ECEAAA
:102F1000F1E0DE01119601900D928A95E1F7298189
:102F20003A814B815C816D8170E080E090E00F9090
:102F30000F900F900F900F90DF91CF910895CF9346
:102F4000DF9300D000D01F92CDB7DEB749835A83FC
:102F50006B837C838D8385E0FE013196ACEAB1E022
:102F600001900D928A95E1F70F900F900F900F90BE
:102F70000F90DF91CF91089582E290E00E94D332CA
:102F8000803281F483E290E00E94D332813151F4A7
:102F900084E290E00E94D33291E0833209F090E025
:102FA000892F01C080E081700895CF93C82F8111CF
:102FB00002C06FEF01C060E282E290E00E94E7325F
:102FC000C11102C06FEF01C061E183E290E00E9495
:102FD000E732C11102C06FEF01C063E284E290E00A
:102FE000CF910C94E73280E00E94D5170C944E28C4
:102FF000089585E290E00E94D332682F70E080E06F
:1030000090E0089585E290E00C94E7320E94F81772
:103010000E94BC1781110CC060E070E0CB010E94DF
:1030200002180E9446190E940C1A81E00C94D517D0
:103030000895CF93FB01C281CC23E9F09C0122517A
:103040003F452031310520F482510E941C1A0CC0EA
:103050008031FFE59F0751F481E00E941D2643E087
:1030600062E081E00E943714C0E018C081319F45C2
:10307000A9F482E0F2CF8031EFE59E0711F481E000
:1030800004C081319F4549F482E00E943E2643E01E
:1030900062E081E00E94371401C0C1E08C2FCF9123
:1030A00008952FEFFC01208308951F93CF93DF93A2
:1030B000EC01162FE8818E2F90E0FC013197E3316F
:1030C000F10508F094C0EA5AFF4F0C94C6321982F9
:1030D00089E099C08981823041F0833009F490C041
:1030E0008130B1F40E94CA2902C00E94F9179A8364
:1030F0008B837C836D837DC08981823049F46A81B2
:103100007B818C819D810E94CC320E94021871C00B
:10311000612FCE010E9451186CC04B816A81898158
:103120000E9418199C838D8364C02C813D813227B5
:10313000232732274B816A8189810E94311959C026
:103140000E94461956C00E94BF1923C00E94C1198F
:10315000998359C06B8170E089819A81AE014C5F7F
:103160005F4F9827892798270E94C41942C06B8116
:1031700070E089819A81AE014C5F5F4F9827892763
:1031800098270E94E91935C00E940C1A32C00E948B
:10319000051989832EC06B8170E089819A81AE0107
:1031A0004C5F5F4F9827892798270E946E1921C08E
:1031B0006B8170E089819A81AE014C5F5F4F9827E7
:1031C000892798270E94911914C00E94F31711C0F3
:1031D000CE010E94532B2FEF80E792E021508040D8
:1031E0009040E1F700C000000E940B2A02C08FEF60
:1031F0008883612FCE01DF91CF911F910C94532BC7
:1032000080E00E949C168A83F4CF88E0089550E005
:10321000440F551F20E1629F400D511D11249A015A
:1032200060E1869F200D311D1124C9018696089505
:103230000F931F93CF93DF930E9407198C010E9475
:10324000D332C82FD0E0DC2FCC27C80101960E94D2
:10325000D3329E01282BC901DF91CF911F910F918D
:1032600008950F931F93CF93DF93122F032F0E9484
:103270000719EC01602F0E94E732612FCE01019601
:10328000DF91CF911F910F910C94E732FF920F9332
:103290001F93CF93DF93F12C00E010E0C0E0D0E06B
:1032A000FE01E00FF11FEE0FFF1FEF53FE4E2591C1
:1032B00034914C2F60E08F2D0E9431192196C83037
:1032C000D10571F7085F1F4FF39488E0F812E6CF3D
:1032D000DF91CF911F910F91FF900895EF92FF9290
:1032E0000F931F93CF93DF93EA017A01E60EF71E47
:1032F0008C01C8018696CE15DF0561F000381105F6
:1033000020F40E94D332888301C0188221960F5F77
:103310001F4FEFCFDF91CF911F910F91FF90EF9053
:103320000895EF92FF920F931F93CF93DF93EA01DB
:103330007A01E60EF71E8C01C8018696CE15DF05D0
:1033400051F00038110518F468810E94E732219687
:103350000F5F1F4FF1CFDF91CF911F910F91FF9022
:10336000EF900895462F883038F4711105C0683009
:1033700018F460E00C94181980E090E0089580E162
:1033800008958AE593E00895EF92FF920F931F93BB
:10339000CF93DF93EA017A01E60EF71E8C01C80194
:1033A0008A559F4FCE15DF0569F00A3523E01207D5
:1033B00020F40E94D332888301C0188221960F5FC7
:1033C0001F4FEDCFDF91CF911F910F91FF90EF90A5
:1033D0000895EF92FF920F931F93CF93DF93EA012B
:1033E0007A01E60EF71E8C01C8018A559F4FCE1553
:1033F000DF0559F00A3523E0120718F468810E94AE
:10340000E73221960F5F1F4FEFCFDF91CF911F91D2
:103410000F91FF90EF900895CF93DF93C6EAD0E02D
:1034200060E0CE010E94E7322196C11584E0D80702
:10343000B9F7DF91CF910895DF92EF92FF920F934A
:103440001F93CF93DF9300D000D0CDB7DEB7F82E17
:103450008FE08F15E8F18FEF93E00E94D332811156
:1034600037C006EA10E0FF2069F0011584E0180774
:1034700079F1C8010E94D332811101C0FA940F5F23
:103480001F4FF1CF19821A821B821C82DD24D39434
:1034900078018FEFE81AF80AC8010E94D3328983B5
:1034A0001A828823A9F09FEF980F933058F48A83EB
:1034B000D9820E5F1F4FC7010E94D3328B838823AE
:1034C00039F07801CE0101960E94E0138701E0CF28
:1034D0000F900F900F900F90DF91CF911F910F9150
:1034E000FF90EF90DF900895AF92BF92CF92DF925E
:1034F000EF92FF920F931F93CF93DF937C015B01B9
:10350000C42FD22FFC0182818823F9F04093B301AC
:103510000E94BE299093B2018093B10180E28C0F8A
:10352000883008F06EC0C77081E001C0880FCA956E
:10353000EAF7DF91CF911F910F91FF90EF90DF900D
:10354000CF90BF90AF900C94C91F8091B3014813E6
:1035500035C08091B1019091B2010E94D6296C01D1
:10356000B701C5010E94FA24C816D90638F510E241
:103570001D0FCD17B9F080E28C0F883040F4C77072
:1035800081E001C0880FCA95EAF70E94D01F183069
:1035900058F581E09D2F977001C0880F9A95EAF742
:1035A0000E94C91F802F0E94B61F183050F5D77097
:1035B00081E001C0880FDA95EAF70AC080E28C0F3B
:1035C0008830F8F4C77081E001C0880FCA95EAF727
:1035D000DF91CF911F910F91FF90EF90DF90CF90EF
:1035E000BF90AF900C94D01F802FDF91CF911F918F
:1035F0000F91FF90EF90DF90CF90BF90AF900C9421
:10360000B61FDF91CF911F910F91FF90EF90DF9048
:10361000CF90BF90AF9008950F939C01CB01233FB3
:103620004CE5340731F188F4283DFCE53F07D9F03B
:10363000293D4CE5340779F1273D3C45A9F506E2E3
:1036400021EE41EE67ED7CE52BC0253FFCE53F0711
:10365000E1F0A8F0263F3C4539F507E225EE46EEBD
:1036600066EF7CE51DC007E225EE45EE68ED7CE5E2
:1036700017C006E221EE40EE63EF7CE511C007E2E1
:1036800025EE44EE64EF7CE50BC006E221EE42EE4F
:1036900065EF7CE505C008E221E045EE69ED7CE5DB
:1036A0000E94741A80E008C0FC018281882319F00E
:1036B0001092B30101C081E00F910895CF93DF9381
:1036C000EC01FB018281882309F41FC1C230FCE5B3
:1036D000DF0708F41BC1C6319CE5D90738F09E010D
:1036E0002A5F3C452930310508F010C10E94672847
:1036F0009093430380934203C031ECE5DE0709F465
:10370000C3C008F041C0C8308CE5D80709F49AC09E
:10371000F0F4C430ECE5DE0709F487C068F4C23089
:103720008CE5D80709F477C0C330DC4509F0E3C065
:1037300080914203826076C0C630ECE5DE0709F472
:103740006EC008F07BC08091420388606BC0CC30B3
:103750008CE5D80709F485C068F4CA30ECE5DE07CB
:1037600009F474C008F079C00E944122809142039C
:10377000806858C0CE308CE5D80709F476C008F0D0
:103780007FC0809142038BC0CB3FECE5DE0709F49C
:103790004FC018F5C3318CE5D80709F47DC078F423
:1037A000C131ECE5DE0709F473C0C231DC4509F034
:1037B000A2C00E944122809142038F7733C0C5315D
:1037C0008CE5D80709F472C008F486C0CA3FDC450E
:1037D00009F091C0809143033EC0CF3FFCE5DF0775
:1037E00009F45FC058F4CD3F9CE5D90709F444C003
:1037F00008F43FC08091430382602DC0C130FDE5D5
:10380000DF0709F475C008F45DC0C230DD4509F07A
:1038100072C080E06EC080914203816003C08091DD
:10382000420380618093420366C08091420311C0CD
:10383000809143038260809343035DC08091420383
:103840008062F0CF809142038064ECCF809142038C
:1038500088608460E7CF8160EECF809142038E7FE5
:10386000E1CF809142038D7FDDCF80914203877F3E
:10387000D9CF8091430318C0809143038D7FDBCF64
:10388000809142038F7ECECF809142038F7DCACF3D
:10389000809142038F7BC6CF80914203877F8B7FCD
:1038A000C1CF809143038D7F8E7FC5CF809142032E
:1038B00082FB222720F991E0922790FB82F990FB6E
:1038C00083F9B0CF80914303982F909591708E7FAC
:1038D000892B90FB81F9AFCF0E9441228091420356
:1038E00087FB222720F991E0922790FB87F99ACF56
:1038F00081E00E94E82880914203909143030E9456
:1039000078280E94412280E001C081E0DF91CF91C0
:103910000895CF93DF9386319C4541F5EB010E94DA
:103920009327982F8A8120910801309109018823DB
:1039300079F09A7A81E009F480E08093B4019111E2
:1039400002C069E201C065E3C9010E942F290AC0D3
:103950008091B401811102C069E201C065E3C9012F
:103960000E9431290E94D42780E001C081E0DF91CC
:10397000CF91089595E890937A00982F907290686F
:1039800090937B008F7190910601892B80937C002E
:1039900080917A00806480937A0080917A0086FD1D
:1039A000FCCF809178002091790090917A009F77E8
:1039B00090937A0090E0922B0895289A219A229A67
:1039C00023982B9880E58CBD0895909107019F3F27
:1039D00009F072C08F3F09F46FC0611103C01092EB
:1039E000B60103C090E29093B601423041F04330FB
:1039F00051F0413069F49091B601946007C0909104
:103A0000B601986003C09091B6019C609093B60196
:103A100041E050E04217530718F4440F551FFACF06
:103A20009091B60140315105F1F050F4423051050A
:103A3000B1F048305105E1F421E02093B50113C005
:103A40004034510591F04038510539F0403251056C
:103A500079F421E02093B50108C0936007C091E09C
:103A60009093B50105C0916001C092609093B6013A
:103A70002CB59091B601922B9CBD9091B5019923E4
:103A800019F09DB591609DBD80930701E82FE295E7
:103A9000EF70F0E031A1282F2F7081E090E001C09D
:103AA000880F2A95EAF7932F982B91A392A18095DE
:103AB000892382A381E0089580E00895CF93DF9366
:103AC0008EBD0E94BE29EC010DB407FC0AC00E9405
:103AD000BE298C1B9D0B84369105B0F38EEF9FEFB2
:103AE00002C08EB590E0DF91CF910895CF93DF9320
:103AF0001EBC0E94BE29EC010DB407FC0AC00E9446
:103B0000BE298C1B9D0B84369105B0F38EEF9FEF81
:103B100002C08EB590E0DF91CF91089580910701AA
:103B20008F3F19F1E82FE295EF70F0E031A1282FD7
:103B30002F7081E090E001C0880F2A95EAF7932F5B
:103B4000982B91A392A1892B82A38FEF80930701D9
:103B50008DB58E7F8DBD9CB58091B60180958923F2
:103B60008CBD1092B6011092B50108959093BC01DE
:103B70008093BB010895E091BB01F091BC013097A7
:103B800021F00190F081E02D099480E00895EF92FA
:103B9000FF920F931F93CF93DF93E091BB01F091BE
:103BA000BC013097B1F18C010280F381E02D0995C1
:103BB0008091120282FF2DC080FF04C08AE293E14F
:103BC0000E94FF0AE80118E084E2E82E83E1F82E63
:103BD0008091120280FF0BC088811F928F93FF9209
:103BE000EF920E94980B0F900F900F900F90115032
:103BF00021961111EDCF8091120280FF0AC082E25E
:103C000093E1DF91CF911F910F91FF90EF900C9472
:103C1000FF0ADF91CF911F910F91FF90EF900895D0
:103C2000E091BB01F091BC01309721F00480F58157
:103C3000E02D099408952091B9013091BA01281717
:103C4000390771F09093BA018093B901E091BB01FB
:103C5000F091BC01309721F00680F781E02D0994A6
:103C600008952091B7013091B8012817390771F0F4
:103C70009093B8018093B701E091BB01F091BC0132
:103C8000309721F00084F185E02D0994089585B7DF
:103C9000806885BF85B7806885BF089508950C94B6
:103CA0004E1E0C944E1E0E94471E0E94511E0C94E4
:103CB000F11181E008950C94591E0E94B5290E94CB
:103CC000D1160E9406180E94452A0E9439120C94AF
:103CD000D012CF93C82F8091120282FF1EC080FFA6
:103CE00004C083E493E10E94FF0A8091120280FFE6
:103CF0000CC01F92CF938EE393E19F938F930E940A
:103D0000980B0F900F900F900F908091120280FFF0
:103D100004C08CE393E10E94FF0A8C2FCF910C9496
:103D2000CB14FF920F931F93CF93DF93CDB7DEB7E2
:103D30002A970FB6F894DEBF0FBECDBF0E94FF16C4
:103D40000E945B1E882379F180E00E949C16082F58
:103D5000F090BE01F82639F18091120281FD0E9497
:103D6000A21680E011E09F2D9123C9F08E831F825F
:103D7000012381E009F480E088870E94BE298160E8
:103D8000782F9A8789874E815F8168858A850E940E
:103D9000081F8091BE0118271093BE0114C08F5FC9
:103DA000110F883001F78FEF89838A831B820E946D
:103DB000BE298160782F9D838C8349815A816B81D4
:103DC0008D810E94081F0E9473120E94BB1D90915A
:103DD000BD01891789F00E94BB1D8093BD012A9601
:103DE0000FB6F894DEBF0FBECDBFDF91CF911F910C
:103DF0000F91FF900C94691E2A960FB6F894DEBFBF
:103E00000FBECDBFDF91CF911F910F91FF9008950D
:103E1000CF93DF93CDB7DEB72B970FB6F894DEBF05
:103E20000FBECDBF4F83588769877A878B87DE01A6
:103E3000119686E0FD0111928A95E9F785E0FE0171
:103E4000379601900D928A95E1F749815A816B81ED
:103E50007C818D819E810E94FD242B960FB6F89463
:103E6000DEBF0FBECDBFDF91CF910895FC018081F1
:103E700091810E9454270895CF93882309F448C064
:103E8000C82F8CEF8C0F813AD0F46C2F80910801F1
:103E9000909109010E94F928882349F06C2F8091A4
:103EA0000801909109010E9431290E94D4276C2FAA
:103EB00080910801909109010E942F290CC080E295
:103EC0008C0F883058F4C77081E001C0880FCA9504
:103ED000EAF70E949627CF910C94D427EBE5EC0FDC
:103EE000E33040F4F0E0EE57FE4F808190E0CF9158
:103EF0000C941B1EC85AC73158F4EC2FF0E0EE0F9B
:103F0000FF1FEC5AFE4F80819181CF910C94311E9E
:103F1000CF910895882349F1682F8CEF860F813A5D
:103F200038F480910801909109010E9431290CC058
:103F300080E2860F883050F4677081E001C0880FFE
:103F40006A95EAF70E949C270C94D4278BE5860F8C
:103F5000833020F480E090E00C941B1E685A673197
:103F600020F480E090E00C94311E0895CF93C82F88
:103F70000E943C1FC93349F42FEF83EF91E0215099
:103F800080409040E1F700C000008C2FCF910C944E
:103F90008A1F882321F00E9496270C94D427089525
:103FA000882321F00E949C270C94D4270895CF9257
:103FB000DF92EF92FF920F931F93CF93DF937C01D9
:103FC000D62FC72FFC01058102950F7012811111A8
:103FD0000E94B3270E948C27882399F0112389F02F
:103FE0008C2F807F803421F080E28D0F883048F064
:103FF00082E00E941E280E948C2791E0D82ED926AC
:1040000001C0D12CCC2EC2948FE0C8228C2D90E020
:104010008C30910508F0ABC1FC01E759FF4F0C94BF
:10402000C6328C2F807FCF70882311F0C295C07F5D
:10403000112399F0CC2309F486C180E28D0F8830DA
:1040400010F0D11104C08C2F0E94962703C08C2F32
:104050000E94A6270E94D42776C18D2F0E948A1F16
:10406000CC2309F484C180E28D0F883010F0D11187
:1040700004C08C2F0E949C2703C08C2F0E94AC2769
:104080000E94D42774C18C2F807FCF70803211F0B2
:10409000C295C07FDD2319F0D130C9F022C01123B1
:1040A00071F0002341F0013031F40E94B9278C2BCC
:1040B0000E94C1275CC10E94B9278C2B1DC0002320
:1040C00019F0013009F453C10E94CA2725C01123F9
:1040D00021F0063008F04BC10EC0053008F047C192
:1040E0001BC0112361F0002331F0F701858180FFAF
:1040F0002AC18F7085838C2F0E94C91F38C100236D
:1041000059F0D93309F030C1FFEF03EF11E0F1505E
:1041100000401040E1F726C18C2F0E94D01F27C11C
:104120008C2F86958695837019F0813061F01FC1C0
:10413000112321F08D2F9C2F937002C080E090E01E
:104140000E941B1E1CC1112321F08D2F9C2F9370E8
:1041500002C080E090E00E94311E11C18C2F83705C
:1041600009F047C0111107C12D2F22952695277000
:10417000220F220F6D2F6F70862F90E0A0E0B0E02D
:10418000022E04C0880F991FAA1FBB1F0A94D2F7E2
:10419000D4FF10C04FE050E060E070E004C0440F76
:1041A000551F661F771F2A95D2F740955095609549
:1041B000709503C040E050E0BA01C695C695C37043
:1041C0008A019B01082B192B2A2B3B2BC901B80113
:1041D000C23049F058F4C13019F00E94D125CBC04B
:1041E0000E94BF25C8C00E94E325C5C00E94BD250E
:1041F000C2C0112319F08C2F817001C086958823CD
:1042000009F4B9C02D2F229526952770220F220F71
:104210006D2F6F70862F90E0A0E0B0E0022E04C0FA
:10422000880F991FAA1FBB1F0A94D2F7D4FF10C092
:104230004FE050E060E070E004C0440F551F661F7F
:10424000771F2A95D2F7409550956095709503C0D9
:1042500040E050E0BA01C695C695C3708A019B0143
:10426000082B192B2A2B3B2BC901B801C23049F06E
:1042700058F4C13019F00E9496267DC00E94842611
:104280007AC00E94A82677C00E94F72574C0CF701C
:10429000112339F08C2F0E941D268D2F0E94C91FDB
:1042A0006AC08D2F0E94D01F8C2F0E943E2663C0B3
:1042B000D23F01F128F4D03F41F0D13FA1F03FC0FF
:1042C000D33FF9F0D43F39F13AC0112341F0053022
:1042D00008F04DC08C2F8F710E94632648C00630B5
:1042E00008F045C0F7CF112339F08C2F8F710E9451
:1042F0001D263DC01123C9F38C2F8F710E943E26CD
:1043000036C0112329F08C2F8F710E9408262FC0F0
:104310000E9403262CC0112349F0CF718C2F0E94DC
:104320001D2663E08C2F0E94092821C081E00E9495
:104330001E280230E0F082E00E941E2818C01123DF
:1043400031F0002391F28D2F0E943C1F10C00023FA
:1043500099F2D93349F41FEF23EF31E01150204097
:104360003040E1F700C000008D2F0E948A1F88EFC7
:104370008C0D843020F40E94BB1D0E94CB14DD20E4
:10438000C9F00E94882780FD15C0F70112820E94A3
:1043900082270E941D26C7010E94FB210E948227BE
:1043A000DF91CF911F910F91FF90EF90DF90CF9011
:1043B0000C943E26DF91CF911F910F91FF90EF90CB
:1043C000DF90CF9008950F931F93CF93DF93EC016D
:1043D000688179818A810E945F278C010E94BA26B8
:1043E0000E94AB25B801CE010E94D71FDF91CF916B
:1043F0001F910F910895CF93DF93EC0198818981EC
:104400002B813C81232B31F08F3F31F481E09F3FA2
:1044100019F403C081E001C080E080FD19C0CE0125
:104420000E94651481110CC00E948C27882381F0A2
:104430008A81882369F082E0DF91CF910C941E2855
:10444000CE010E94E321CE01DF91CF910C94201385
:10445000DF91CF9108950E94B3270E94B6270E9452
:10446000D42780E090E00E941B1E80E090E00C9436
:10447000311E80910801909109010E9433290C940A
:104480002B220E94A3270C943922E92FE295EF708A
:104490004E2F50E0FA013297EE30F105B0F4EB58B0
:1044A000FF4F0C94C632803F91F018F4883E68F4B8
:1044B0000EC0843F51F40BC0883E48F0813F29F480
:1044C00006C093FB882780F9089580E0089581E075
:1044D00008950E9454270E9445220895CF93DF93A8
:1044E00000D000D01F92CDB7DEB70F900F900F9085
:1044F0000F900F90DF91CF910895CF93DF9300D06D
:1045000000D000D0CDB7DEB726960FB6F894DEBF48
:104510000FBECDBFDF91CF9108951F93CF93DF934F
:10452000C091C00116E08091C101C81799F0D0E098
:104530001C9FF0011D9FF00D1124EE53FE4F408192
:10454000518162817381848195810E947D222196AF
:10455000C770E9CFDF91CF911F9108954091F2018B
:104560005091F3016091F4017091F5018091F60191
:104570009091F7010C947D220F931F93CF93DF93BB
:104580008091F70182958F7009F05DC08091F401F0
:10459000882309F458C08091C0011091C101609135
:1045A000F2017091F301C091F501D091F60191E013
:1045B0006F3F09F090E0292F06E0811709F443C00E
:1045C000209721F07F3F21F030E003C031E001C0AF
:1045D000322F90E030FD34C0089FF001099FF00DAC
:1045E0001124DF01AE53BE4F11963C911197371342
:1045F00027C03C91361324C012963C91129731117A
:104600001FC013964D915C9114974C1B5D0B483C59
:104610005105B0F48091F7018F7080618093F701AC
:10462000E953FE4F80818F708061808382EF91E03B
:104630000E94FB21DF91CF911F910F910C948D224D
:1046400001968770BACFDF91CF911F910F91089596
:104650009F92AF92BF92CF92DF92EF92FF920F9311
:104660001F93CF93DF93CDB7DEB761970FB6F89462
:10467000DEBF0FBECDBF8C0185E0F801DE011D96C7
:1046800001900D928A95E1F7F80140815181E28015
:104690009091F2016091F3012091F5013091F601C2
:1046A0002115310531F06F3F31F481E09F3F19F45E
:1046B00003C081E001C080E0F82FF1709F2E80FDE3
:1046C00046C1F801A380B48082EFC82E81E0D82EC5
:1046D000F090F401F501E21BF30BFF2009F4DFC0B9
:1046E0008091F701E83CF10508F09BC0282F207F5E
:1046F00009F052C0561313C0491311C0FE2CE1102B
:104700000EC08F7080618093F7010E94AE22C601B7
:104710000E94FB218091F701F801858358C1AB28E5
:1047200031F05F3F31F481E04F3F19F403C081E085
:1047300001C080E080FD03C081E08E2502C080E0E2
:1047400090E0F82FF170FF2E80FF1CC08091C00117
:104750002091C10136E0821709F417C190E0389F1B
:10476000F001399FF00D1124EE53FE4F6181561375
:1047700006C06081461303C06281E61203C0019641
:104780008770E9CFFE2CEE2009F421C18091F7015A
:1047900081608093F7015AC0561306C0491304C0C4
:1047A000E11002C0F8019FC04D875E878D859E8510
:1047B0000E946922882379F1EE2069F12091F701A6
:1047C000822F82958F7090E0029774F08091F201B1
:1047D0009091F30198878F831986BB86AA862C87D0
:1047E000CE0107960E94FB2186E0F801A2EFB1E01E
:1047F00001900D928A95E1F70E94BC220E94AE22A0
:104800000DC0561729F14D875E878D859E850E94C4
:10481000692281112CC0C8010E94FB21FF24F3945E
:10482000D6C0282F207F69F77A2DB98AA88A6E2DE5
:1048300089890E946E2282EF91E00E94FB2186E02E
:10484000F60111928A95E9F70E94AE22F12CBFC0C1
:104850004913D9CFE110D7CFF8018583C8010E9451
:10486000FB2186E0F60111928A95E9F7B0C0EE20AF
:1048700091F22091F701822F82958F7090E002973C
:104880000CF4B2CF8091F2019091F3019A83898365
:104890001B82BD82AC822E83CE010196A3CFE83C61
:1048A000F10508F047C0FE2CEE2009F4B4CF5613F2
:1048B00030C049132EC02091F70120FD21C0822F66
:1048C00082958F70482F50E041155105C9F0F801CD
:1048D00025834F30510541F08F5F982F9295907F3F
:1048E000822F8F70892B8583C8010E94FB2186E06F
:1048F000F801A2EFB1E001900D928A95E1F742C074
:1049000086E0F801A2EFB1E001900D928A95E1F7FF
:104910005EC04D875E878D859E850E9469228111CC
:1049200063CF8091F70181608093F701C8010E94F5
:10493000FB214DC07A2DB98AA88A6E2D89890E94E3
:104940006E2286E0F60111928A95E9F71BC0EE20EF
:1049500009F461CF4D875E878D859E850E9469220F
:10496000F82E882309F457CF86E0F801A2EFB1E0D2
:1049700001900D928A95E1F782EF91E00E94361F37
:104980000E94BC220E94AE2222C04D875E878D8588
:104990009E850E945427292F22952F70223028F4BB
:1049A0009F7039F0811105C00BC0243028F49F702E
:1049B00049F4805E883020F0C8010E94FB219F2CC2
:1049C000F92C05C0F8019581907F99F7F9CF8F2DCB
:1049D00061960FB6F894DEBF0FBECDBFDF91CF91C9
:1049E0001F910F91FF90EF90DF90CF90BF90AF900D
:1049F0009F90089588EC90E008951F93CF93DF93E4
:104A0000CDB7DEB72C970FB6F894DEBF0FBECDBF83
:104A10004F83588769877A878B879C87CE01079653
:104A20000E9428238823D1F09F8188852A853B8591
:104A3000232B31F08F3F31F481E09F3F19F403C005
:104A400081E001C080E080FD47C04F8158856985C5
:104A50007A858B859C850E947D223EC086E0FE0182
:104A60003796DE01119601900D928A95E1F7FF814C
:104A7000E8856A857B856115710531F0EF3F31F47A
:104A800081E0FF3F19F403C081E001C080E080FDB8
:104A900023C02091C10130E0C90101968770992798
:104AA0004091C00150E084179507F1F1F983EA8342
:104AB0007D836C8396E0929FD001939FB00D11246B
:104AC000AE53BE4FFE01319601900D929A95E1F7DB
:104AD0008093C1010E948D2216E08091C0019091C7
:104AE000C101891771F1189FC00111248E539E4F87
:104AF0000E942823882329F1E091C0011E9FF00124
:104B00001124EE53FE4F4081518162817381848173
:104B100095810E947D228091C00190E0019687706E
:104B200099278093C001D9CF0E9441221092C101E0
:104B30001092C001E2EFF1E086E0DF011D928A955C
:104B4000E9F72C960FB6F894DEBF0FBECDBFDF910C
:104B5000CF911F910895089508950C94AC250C945D
:104B6000AD250E94AF2560930102709302028093ED
:104B70000302909304020C942B220C94B1250F9302
:104B80001F930091010210910202209103023091C3
:104B90000402602B712B822B932B1F910F910C948D
:104BA000B1250F931F9300910102109102022091F1
:104BB00003023091040260237123822393231F9107
:104BC0000F910C94B1250F931F9300910102109146
:104BD000020220910302309104026027712782278C
:104BE00093271F910F910C94B1250C94AC250E9432
:104BF000F5256093FD017093FE018093FF01909372
:104C000000020C942B2260E070E0CB010C94F7259D
:104C10000F931F9341E050E060E070E08A019B0138
:104C200004C0000F111F221F331F8A95D2F7C9013C
:104C3000B8011F910F910C94F7250F931F9341E03A
:104C400050E060E070E004C0440F551F661F771FFE
:104C50008A95D2F78091FD019091FE01A091FF010C
:104C6000B09100028A019B01082B192B2A2B3B2BA8
:104C7000C901B8011F910F910C94F7250F931F9351
:104C800041E050E060E070E004C0440F551F661F33
:104C9000771F8A95D2F740955095609570958091D1
:104CA000FD019091FE01A091FF01B09100028A01E7
:104CB0009B01082319232A233B23C901B8011F9113
:104CC0000F910C94F7250F931F9341E050E060E0A3
:104CD00070E004C0440F551F661F771F8A95D2F7F6
:104CE0008091FD019091FE01A091FF01B091000221
:104CF0008A019B01082719272A273B27C901B801E8
:104D00001F910F910C94F7250F931F930091FD01B4
:104D10001091FE012091FF0130910002602B712B58
:104D2000822B932B1F910F910C94F7250F931F93B8
:104D30000091FD011091FE012091FF0130910002D0
:104D400060237123822393231F910F910C94F725E5
:104D50000F931F930091FD011091FE012091FF011F
:104D60003091000260277127822793271F910F91AE
:104D70000C94F725089528E0929F800D1124E82FC8
:104D8000E695E695E695877051E001C0550F8A9546
:104D9000EAF785E0E89FF0011124E850FE4F20E09B
:104DA00030E070E04081CB01022E02C096958795DD
:104DB0000A94E2F781708195842785238427819363
:104DC0002F5F3F4F2530310569F7089528E0929F06
:104DD000800D1124682F669566956695982F9770BB
:104DE00085E0689FB001112440E050E080E0FB01C5
:104DF000E40FF51FE850FE4F208130E0092E02C07D
:104E0000369527950A94E2F721703327042E01C0C6
:104E1000220F0A94EAF7822B4F5F5F4F453051050E
:104E200031F70895BF92CF92DF92EF92FF920F93E6
:104E30001F93CF93DF938C01C090FD01D090FE01B2
:104E4000E090FF01F0900002809101029091020237
:104E5000A0910302B0910402C82AD92AEA2AFB2AA7
:104E6000CFE1D0E0D701C6010C2E04C0B695A795BE
:104E7000979587950A94D2F780FD04C0219790F703
:104E8000B12C07C0BC2EB8018C2F0E94D4140197FE
:104E9000A9F38B2DDF91CF911F910F91FF90EF9090
:104EA000DF90CF90BF900895CF93DF93EC010E94E5
:104EB0001227BE010E94D414DF91CF9108951F9351
:104EC000CF93DF93EB019091BF01992321F0CB01A8
:104ED0000E94542713C0882349F0CB010E94122757
:104EE000182F682FCE010E94BB2604C0CB010E9460
:104EF000E626182FBE01812F0E94D414DF91CF9196
:104F00001F91089580910502859585958595089551
:104F1000809105028770089590910502977081E055
:104F200009F480E008958091110208959091110292
:104F3000892B809311020895809590911102892305
:104F40008093110208951092110208959091100219
:104F5000892B8093100208958095909110028923E7
:104F600080931002089510921002089510920F027B
:104F7000089580910602089508950C94BC270C941E
:104F8000BD2790910602981721F0809306020C9499
:104F9000BF27089580910602882329F01092060207
:104FA00080E00C94BF270895E0910801F091090179
:104FB000809111028083E0910801F09109019081B4
:104FC00080911002892B8083E0910801F091090102
:104FD000908180910F02892B808380910602882323
:104FE00081F0E0910801F09109019081892B808383
:104FF00080910801909109010E94ED2881110E9481
:10500000CA2780910801909109010C94C71D0C9446
:10501000BC2798E0899F90011124262B209305023C
:105020000E941D26809105028595859585950C9495
:1050300007281092050280E00C94072820910502B1
:105040008095822380930502982F977079F430E041
:10505000482F082E000C550B2417350739F085957D
:10506000859585950E943E260C9419280895909365
:105070009F0180939E0108958295982F937344E039
:10508000949F900111248C7C86958695282B822FE5
:105090008575880F2A7A2695822B08956FEF7FEF0A
:1050A00080E090E00C94053380E090E00E94E132D3
:1050B00021E08C3E9E4F09F020E0822F089582E08F
:1050C00090E00C94D33283E090E00C94D332CF93F1
:1050D00084E090E00E94D332C82F81E290E00E94E9
:1050E000D3322C2F30E0A901582BCA01CF9108955B
:1050F000CF93C92F682F84E090E00E94E7326C2F95
:1051000081E290E0CF910C94E7328FE090E00C9434
:10511000DB32AB01BC018FE090E00C94F9326CEE15
:105120007EEF80E090E00E94053360E082E090E056
:105130000E94E73260E083E090E00E94E732109244
:10514000010210920202109203021092040260E027
:1051500084E090E00E94E73260E081E290E00E940B
:10516000E73260E085E090E00E94E73260E086E0B0
:1051700090E00E94E7326FEF87E090E00E94E73214
:1051800040E050E0BA0188E090E00E94F93260E02F
:105190008DE090E00E94E73240E050E0BA0188E103
:1051A00090E00E94F93260E087E190E00E94E732EF
:1051B00040E050E0BA018CE190E00E94F93260E0FA
:1051C00080E290E00E94E7320C94B3120C948F2896
:1051D000682F8EE090E00C94E732FC01329697E065
:1051E00080E0915029F021912223D9F38F5FF9CFEC
:1051F0000895662349F0FC013296089621916217C2
:1052000029F0E817F907D1F780E0089581E00895C3
:105210009C01FC0132969FEF80E04191461789F096
:105220009F3F19F4411101C0982F8F5F8630A9F775
:105230009F3F39F0F901E90FF11D97FDFA9562835F
:10524000089508959C012A5F3F4FFC014281461357
:1052500001C01282019682179307B9F708950C9442
:1052600008290C942229029626E0FC0111922A9525
:10527000E9F7089508950C943A290C943A290E946C
:105280003D290E94FF160E943B2980E00E949C1647
:1052900091E0811101C090E0892F08950C943A2982
:1052A0000C944E290E94502980914803843049F182
:1052B0001092130220E488E190E00FB6F894A895CC
:1052C000809360000FBE2093600080E00E94CB14AA
:1052D0000E94502983B7817F846083BF83B7816038
:1052E00083BF7894889583B78E7F83BF0FB6F89479
:1052F000A8958091600088618093600010926000A2
:105300000FBE08950C943A290E9441220E94BB1DB1
:105310000E94CB140C9482291F920F920FB60F9209
:1053200011248F939F93AF93BF93809113028111A8
:1053300013C080913E0390913F03A0914003B09130
:1053400041034196A11DB11D80933E0390933F03FD
:10535000A0934003B0934103BF91AF919F918F9170
:105360000F900FBE0F901F90189582E084BD93E0C0
:1053700095BD9DE797BD80936E0008952FB7F89473
:1053800080913E0390913F03A0914003B09141036F
:105390002FBF08952FB7F89460913E0370913F039B
:1053A00080914003909141032FBF08959C014FB716
:1053B000F89480913E0390913F03A0914003B091F7
:1053C00041034FBF821B930B089578941F920F9255
:1053D0000FB60F9211248F939F93AF93BF93809139
:1053E0003E0390913F03A0914003B0914103019689
:1053F000A11DB11D80933E0390933F03A0934003F2
:10540000B0934103BF91AF919F918F910F900FBEC9
:105410000F901F90189581E08093E00080E28093C8
:10542000D8001092C9008FE097E20197F1F700C011
:10543000000087E090EBDC018093510390935203CE
:10544000A0935303B09354039CE088E10FB6F89403
:10545000A895809360000FBE90936000FFCF0C94DE
:10546000F3170E94FF168FE19EE40197F1F700C049
:1054700000000E94FF1680E00E949C1683FF04C07B
:105480000E942F2A0C940B2A08950E9454288111FF
:1054900002C00E94E6280E945F28809312020E94A8
:1054A000672890934303809342030E946328682FE8
:1054B00070E080E090E00E94BD256091FD01709158
:1054C000FE018091FF01909100020C94F5258091DE
:1054D0001F0208959FB7F894109216029FBF9091F3
:1054E0004803943009F057C09091E9009F703091C3
:1054F000EC00232F217030FD20E8922B26E0209332
:10550000E9002091EB0020FF43C02091EE0027FF2F
:105510003FC020911402222321F02091E80025FFB2
:1055200037C01092140226E03091E80035FD15C016
:1055300030914803343061F53091EB0035FD28C0DF
:10554000215021F481E08093140222C0EFECF7E0B7
:105550003197F1F700C00000E7CF8093F100809110
:10556000E80085FD0AC08091E80080FFFCCF8091B3
:10557000E8008E778093E80006C08FB7F89421E0AA
:10558000209316028FBF9F709093E90080E00895EA
:105590009F709093E9008FEF0895CF93DF9300D031
:1055A0001F92CDB7DEB790914803943019F58983E7
:1055B0007B836A8385E08093E9008FEF9091E80018
:1055C000815095FD06C09AE69A95F1F700C08111C9
:1055D000F5CF8091E80085FF0DC040E050E063E02A
:1055E00070E0CE0101960E94AD2D8091E8008E778B
:1055F0008093E8000F900F900F90DF91CF91089566
:10560000BC0184E00C94CD2ABC0183E00C94CD2A2B
:1056100022E02093E9002FEF3091E800215035FD82
:1056200006C03AE63A95F1F700C02111F5CF209176
:10563000E80025FF0BC040E050E065E070E00E940C
:10564000AD2D8091E8008E778093E8000895CF9388
:10565000DF9321E02093E9002FEF3091E800215003
:1056600035FD06C03AE63A95F1F700C02111F5CFB5
:105670002091E80025FF14C0EC0140E050E068E014
:1056800070E00E94AD2D8091E8008E778093E80055
:1056900088E0FE01A7E1B2E001900D928A95E1F762
:1056A000DF91CF910895CF93603219F5209148038F
:1056B0002430F9F4C091E900CF703091EC00232F31
:1056C000217030FD20E8C22B23E02093E9002091D7
:1056D000E80020FF0BC040E050E060E270E00E9474
:1056E000AD2D8091E8008E778093E800CF70C09355
:1056F000E900CF9108958BE793E10E94FF0A809122
:105700004703811109C00E94892F0E94E62F8091D2
:10571000E20084608093E200089587E793E10E94AD
:10572000FF0A10924703089583E793E10C94FF0A60
:105730008FE693E10C94FF0A8BE693E10E94FF0A47
:105740000C948429209115022F5F822F62E30E941E
:105750009232992319F020931502089510921502A0
:1057600080911602882371F180914803843041F5BD
:105770008091E9008F702091EC00922F917020FDB4
:1057800090E8892B96E09093E9009091EB0090FFD0
:1057900014C09091EE0097FF10C09091E80095FF23
:1057A00003C01092F100F9CF9091E80090FF05C07E
:1057B0009091E8009E779093E8008F708093E900C5
:1057C00010921602089542E061EC81E00E94022FDF
:1057D00042E061EC82E00E94022F42E261EC85E04F
:1057E0000E94022F42E261EC83E00E94022F42E21B
:1057F00060EC84E00E94022F42E261EC86E00C94AF
:10580000022F80914A03833009F462C030F4813062
:1058100071F0823009F49BC008958A3009F487C082
:105820008B3009F46DC0893009F0A9C020C0809187
:105830004903813A09F0A3C08091E800877F8093F3
:10584000E80080914D0390914E03892B21F468E08C
:1058500087E192E003C060E080E090E070E00E94A9
:10586000432E8091E8008B778093E8000895809123
:105870004903813209F083C080914D0390914E031A
:10588000009719F0039709F07AC08091E800877FAC
:105890008093E8008091E80082FD05C08091480374
:1058A0008111F8CF6CC02091F3008091F20090E05C
:1058B000922B029729F48091F1008B7F813021F4A3
:1058C0008091F10080931F028091E8008B7753C094
:1058D00080914903813A09F052C080914D03909123
:1058E0004E03892B09F04BC08091E800877F80939D
:1058F000E8008091E80080FFFCCF8091140136C061
:10590000809149038132D9F580914D0390914E03E6
:10591000892BA9F58091E800877F8093E8000E9499
:10592000372F80914B03809314010C944122809176
:105930004903813221F58091E800877F8093E80058
:105940000E94372F80914C0380932002089580910C
:105950004903813AA1F48091E800877F8093E800B1
:105960008091E80080FFFCCF809120028093F100BD
:105970008091E8008E778093E8000C94372F08958B
:10598000CF93DF93CDB7DEB7A0970FB6F894DEBF05
:105990000FBECDBF84B7877F84BF0FB6F894A8959C
:1059A00080916000886180936000109260000FBE5B
:1059B00090E080E80FB6F8948093610090936100C6
:1059C0000FBE0E94531E0E94892F0E94E62F8091D5
:1059D000E20084608093E2008AE69AE20E9437281F
:1059E00078940E9477320E945D1E8AE091E00E94C6
:1059F000B61D8AE593E10E94FF0A80914803853035
:105A000089F486E593E10E94FF0A0E945229809161
:105A10004603882391F30E943F29882371F30E9453
:105A2000982DEBCF0E94911E80914803843029F776
:105A30008093E9008091E80082FFDFCF8091E80049
:105A400085FF0AC040E050E060E270E0CE010196C0
:105A50000E94F82D91E001C090E08091E8008B77E2
:105A60008093E800992349F260E2CE0101960E94FA
:105A70005518C3CF0C943C2D292F332723303105E3
:105A8000C9F060F42130310581F02230310509F090
:105A900047C084E990E02BEA33E146C0213231056A
:105AA00011F12232310561F13BC082E190E02FE338
:105AB00034E13AC099278130910561F040F082309D
:105AC000910559F0039761F5EFE7F3E108C0E7EAC4
:105AD000F3E105C0E3E9F3E102C0E5E8F3E1849115
